S01600005377697463685F4C65645F6176722E7372656380
S11300000C942A000C9434000C9434000C943400A6
S11300100C9434000C9434000C9434000C9434008C
S11300200C9434000C9434000C9434000C9434007C
S11300300C9434000C9434000C9434000C9434006C
S11300400C9434000C9434000C9434000C9434005C
S11300500C94340011241FBECFE5D8E0DEBFCDBF21
S11300600E9436000C9440000C940000B89AA098AA
S1130070A89A83B3811102C0C098FBCFC09AF9CF6C
S1070080F894FFCF1E
S9030000FC
