S01000006C63645F64656D6F2E73726563DD
S11300000C942A000C9447000C9447000C9447006D
S11300100C9447000C9447000C9447000C94470040
S11300200C9447000C9447000C9447000C94470030
S11300300C9447000C9447000C9447000C94470020
S11300400C9447000C9447000C9447000C94470010
S11300500C94470011241FBECFE5D8E0DEBFCDBF0E
S113006010E0A0E6B0E0EEECF7E002C005900D92DF
S1130070A639B107D9F720E0A6E9B0E001C01D9286
S1130080A63AB207E1F70E94B7030C94E5030C9477
S11300900000009721F0000001970097E1F7089510
S11300A0009749F0E9EFF0E03197F1F700C0000064
S11300B001970097B9F70895982F977086958695BC
S11300C08695813021F130F08230F1F1833009F4EA
S11300D058C00895662369F04AB321E030E0B901BD
S11300E002C0660F771F9A95E2F7CB01842B8ABB77
S11300F008954AB321E030E0B90102C0660F771FCA
S11301009A95E2F7CB01809584238ABB08956623F0
S113011069F047B321E030E0B90102C0660F771FF0
S11301209A95E2F7CB01842B87BB089547B321E06E
S113013030E0B90102C0660F771F9A95E2F7CB0150
S11301408095842387BB0895662369F044B321E036
S113015030E0B90102C0660F771F9A95E2F7CB0130
S1130160842B84BB089544B321E030E0B90102C07C
S1130170660F771F9A95E2F7CB018095842384BBA1
S11301800895662369F041B321E030E0B90102C06B
S1130190660F771F9A95E2F7CB01842B81BB0895F4
S11301A041B321E030E0B90102C0660F771F9A9590
S11301B0E2F7CB018095842381BB0895982F977033
S11301C0869586958695813021F130F08230F1F163
S11301D0833009F458C00895662369F04BB321E0D5
S11301E030E0B90102C0660F771F9A95E2F7CB01A0
S11301F0842B8BBB08954BB321E030E0B90102C0DE
S1130200660F771F9A95E2F7CB01809584238BBB09
S11302100895662369F048B321E030E0B90102C0D3
S1130220660F771F9A95E2F7CB01842B88BB08955C
S113023048B321E030E0B90102C0660F771F9A95F8
S1130240E2F7CB018095842388BB0895662369F087
S113025045B321E030E0B90102C0660F771F9A95DB
S1130260E2F7CB01842B85BB089545B321E030E050
S1130270B90102C0660F771F9A95E2F7CB0180950A
S1130280842385BB0895662369F042B321E030E0FE
S1130290B90102C0660F771F9A95E2F7CB01842B50
S11302A082BB089542B321E030E0B90102C0660F79
S11302B0771F9A95E2F7CB018095842382BB08953A
S11302C0982F9770869586958695813089F028F0C9
S11302D08230C9F0833011F12CC029B330E0A90178
S11302E002C0559547959A95E2F7CA018170089521
S11302F026B330E0A90102C0559547959A95E2F7D7
S1130300CA018170089523B330E0A90102C0559554
S113031047959A95E2F7CA018170089520B330E0B9
S1130320A90102C0559547959A95E2F7CA018170D3
S1130330089580E00895CF93C82F84FB662760F961
S11303408091A0000E94DE00C5FB662760F98091C1
S1130350A1000E94DE00C6FB662760F98091A2001E
S11303600E94DE006C2F661F6627661F8091A30023
S11303700E94DE00CF910895CF93DF9360E08091D7
S113038099000E94DE0060E080919A000E94DE00E5
S1130390CBE9D0E061E088810E94DE008AE090E051
S11303A00E94490060E088810E94DE00DF91CF91C5
S11303B00895CF93C82F682F617080919C000E948C
S11303C0DE00C1FB662760F980919D000E94DE007B
S11303D0C2FB662760F980919E000E94DE00C3FB89
S11303E0662760F980919F000E94DE00CF910895F6
S11303F0CF93DF9361E0809199000E94DE0060E07A
S113040080919A000E94DE00CBE9D0E061E088810F
S11304100E94DE008AE090E00E94490060E088814A
S11304200E94DE00DF91CF910895DF92EF92FF9258
S11304300F931F93CF93DF9380919A008F3F09F41A
S11304404AC060E08091A3000E945C0060E080915B
S113045099000E94DE0061E080919A000E94DE0013
S1130460CBE9D0E00F2EF3EAEF2EF0E0FF2EF02DD3
S113047008E910E060E088810E94DE008AE090E0F4
S11304800E94490061E088810E94DE008AE090E0D9
S11304900E944900F70180810E946001D82EF80172
S11304A08081843081F460E088810E94DE008AE0EB
S11304B090E00E94490061E088810E94DE008AE0A9
S11304C090E00E944900D110D5CF61E08091A30053
S11304D00E945C0004C081E090E00E945000DF9123
S11304E0CF911F910F91FF90EF90DF9008958F921D
S11304F09F92AF92BF92CF92DF92EF92FF920F93AF
S11305001F93CF93DF93CDB7DEB7D82EF62E142FDB
S11305109F84B8888093990060939A0040939B00CD
S113052020939C0000939D00E0929E00C0929F0047
S1130530A092A0008092A1009092A200B092A30089
S11305402F3F39F00F3F29F08FEFE81611F0C81252
S113055004C084E08093980013C088E080939800DE
S113056061E0822F0E945C0061E0802F0E945C00A9
S113057061E08E2D0E945C0061E08C2D0E945C0085
S113058061E08D2D0E945C0061E08F2D0E945C0073
S113059061E0812F0E945C0061E08A2D0E945C0072
S11305A061E0882D0E945C0061E0892D0E945C005E
S11305B061E08B2D0E945C00DF91CF911F910F9120
S11305C0FF90EF90DF90CF90BF90AF909F908F906F
S11305D00895CF93C82F0E94150280919800883007
S11305E021F48C2F0E94D90107C08C2F0E949B01FB
S11305F00E94BC01C295C07F8C2F0E949B010E9467
S1130600BC01CF91089590919600891758F41092E7
S1130610A4008093A500E82FF0E0E05AFF4F80810A
S11306200E94E902089581E00E94E90280E00E94AC
S1130630030308956093970080939600833040F0FD
S11306406F7080E9860F809362006053609363004B
S113065084E690E00E94500080919800883021F454
S113066088E30E94E90229C0843039F580E30E94BE
S11306709B010E94BC0184E690E00E94500080E34C
S11306800E949B010E94BC0188EC90E00E944900FA
S113069080E30E949B010E94BC0188EC90E00E94D0
S11306A0490080E20E949B010E94BC0188EC90E01A
S11306B00E94490088E20E94E9028EE00E94E90259
S11306C00E94130308958091A5008F5F8093A50075
S11306D01092A40090919600891710F01092A50032
S11306E0E091A500F0E0E05AFF4F80810E94E9020A
S11306F00895CF93C82F909197008091A4008917F3
S113070018F4CA3029F420C00E946303CA30F1F0FF
S11307100E94150280919800883021F48C2F0E9449
S1130720D90107C08C2F0E949B010E94F801C29539
S1130730C07F8C2F0E949B010E94F8018091A4002D
S11307408F5F8093A40002C00E946303CF91089539
S1130750CF93DF93EC018881882331F021960E94A6
S1130760790389918111FBCFDF91CF91089587E1BE
S11307708F9386E18F930F2EF5E18F2EF02D0F2EA0
S1130780F4E1AF2EF02DCC24CA94EE24EA940FEFBA
S11307902FEF4AE069E088E00E94770264E184E098
S11307A00E941A0384E690E00E94A80386E790E082
S11307B00E94A80386E890E00E94A8038FE890E0D6
S11107C00E94A8030F900F90FFCFF894FFCF74
S11307CE80C090D04578706C6F726520456D6265FF
S11307DE646465640A004C434420342D62697420B9
S11307EE4D6F64650A00323020782034200A003AB6
S10907FE2920203A4F00FF
S9030000FC
