:100000000C942A000C943F000C943F000C943F0089
:100010000C943F000C943F000C943F000C943F0064
:100020000C943F000C943F000C943F000C943F0054
:100030000C943F000C943F000C943F000C943F0044
:100040000C943F000C943F000C943F000C943F0034
:100050000C943F0011241FBECFE5D8E0DEBFCDBF1A
:1000600010E0A0E6B0E0E4E6F9E002C005900D92F1
:10007000AE38B107D9F70E94B9020C94B0040C94C1
:10008000000081E886B917B8089587B98AE090E042
:100090000E945000369A349BFECF84B195B10895EA
:1000A000009731F025E02A95F1F700000197F8CF8D
:1000B0000895CF92DF92EF92FF926B017C01DC01F9
:1000C000CB0180569940A109B109813A984BA140D2
:1000D000B10598F4A8EFBFEFA70196010E94910423
:1000E0007C5D8B409F4FE4E0220F331F441F551F60
:1000F000EA95D1F70E946C0402C027E630E029B9E6
:1001000030BDFF90EF90DF90CF90089528E12AB99D
:1001100026E820BD1BB80C9459005D9BFECF8CB91E
:100120000895AF92BF92CF92DF92EF92FF920F931A
:100130001F93CF93DF931F92CDB7DEB76B017C0186
:10014000AA24A394B12C4423F1F00FEF040FC501AE
:1001500002C0880F991F0A95E2F78C01222717FD2C
:100160002095322F0C211D212E213F2181E0012BD2
:10017000022B032B09F480E0805D49830E948D00EF
:1001800049814150E0CF0F90DF91CF911F910F91A6
:10019000FF90EF90DF90CF90BF90AF900895CF93F6
:1001A000DF93EC018991882319F00E948D00FACF2A
:1001B000DF91CF9108957F928F929F92AF92BF92DD
:1001C000CF92DF92EF92FF920F931F93CF93DF9323
:1001D000CDB7DEB72A970FB6F894DEBF0FBECDBFFE
:1001E000782ECB01BA01C22E22E0721216C04C2D1D
:1001F0002A960FB6F894DEBF0FBECDBFDF91CF9128
:100200001F910F91FF90EF90DF90CF90BF90AF9034
:100210009F908F907F900C949100611571058105DE
:10022000910549F0FE0131967F018F01872C912CB9
:10023000A12CB12C1DC010E01C15A1F11A3091F1B8
:1002400080E30E948D001F5FF7CF61157105810566
:10025000910599F0D62EA50194010E946C04CA0163
:10026000B901729ED0181124F801D0820F5F1F4F80
:10027000D02EDE18DC1448F310C0FAE0FC1568F04C
:10028000F8011082F3CFFE01ED0DF11D80818A305F
:1002900038F0895C0E948D00DA94D110F4CF02C04E
:1002A000805DF8CF2A960FB6F894DEBF0FBECDBFA3
:1002B000DF91CF911F910F91FF90EF90DF90CF9042
:1002C000BF90AF909F908F907F9008958F929F9254
:1002D000AF92BF92CF92DF92EF92FF926B017C01BF
:1002E0000E944F034B015C012FEFAB01BC018AE080
:1002F0000E94DB008EE20E948D00C501B4010E94C5
:100300007B039B01AC01C701B6010E94E50220E01E
:1003100034E244E759E40E9409040E944F03AB0110
:10032000BC012FEF8AE0FF90EF90DF90CF90BF905D
:10033000AF909F908F900C94DB00CF92DF92EF9262
:10034000FF920F931F93CF93DF9300D000D01F92A3
:10035000CDB7DEB7FE017096E190F1906F01F70125
:100360008081882309F4F7C0853209F0ECC0870149
:100370000F5F1F4FF701818190ED980F9A3078F44D
:1003800020E090ED980F9A3058F4FAE02F9F900DEE
:100390001124292F0F5F1F4FF8018081F2CF2FEF1B
:1003A000883509F48FC0C8F4843409F44CC058F47B
:1003B000823409F4A1C038F5853209F0C7C085E25E
:1003C0000E948D00C3C0833509F4B2C0853509F49D
:1003D00064C0863409F0BAC09FC0863609F49CC058
:1003E00040F4833681F08436B9F0823609F0AEC02D
:1003F00076C0853709F447C0883709F459C0833778
:1004000009F0A4C095C07601F2E0EF0EF11CF601F0
:1004100080810E948D0095C07601F2E0EF0EF11C04
:10042000F601C080D180D7FE08C0D194C194D10814
:100430008DE22D830E948D002D81A601662757FD38
:100440006095762F33C07601F4E0EF0EF11CF601D3
:10045000408151816281738177FF28C070956095DA
:10046000509541955F4F6F4F7F4F8DE22D834983AC
:100470005A836B837C830E948D007C816B815A81BF
:1004800049812D8113C07601F2E0EF0EF11CF601D7
:100490004081518160E070E009C07601F4E0EF0E28
:1004A000F11CF60140815181628173818AE014C0A0
:1004B0007601F2E0EF0EF11CF6014081518160E01F
:1004C00070E009C07601F4E0EF0EF11CF601408106
:1004D00051816281738180E10E94DB0032C076012C
:1004E000F2E0EF0EF11CF601608171812F3F09F4FB
:1004F00020E180E090E00CC07601F4E0EF0EF11C0A
:10050000F60160817181828193812F3F09F420E29D
:10051000422F0E94910015C07601F4E0EF0EF11C0D
:10052000F60160817181828193810E94660109C018
:100530007601F2E0EF0EF11CF601808191810E94BC
:10054000CF00670103C00E948D0087017801FFEF93
:10055000EF1AFF0A04CF0F900F900F900F900F909B
:10056000DF91CF911F910F91FF90EF90DF90CF908F
:1005700008950E94410060E875E280E090E00E94EA
:10058000860000E610E081E00E944500EC01BC011D
:10059000882777FD8095982F0E947D0320E030E02A
:1005A00040E05FE30E9409040E944A037F936F9337
:1005B000DF93CF931F930F930E949D010F900F9095
:1005C0000F900F900F900F90DECF5058BB27AA27A7
:1005D0000ED0E5C0D6D030F0DBD020F031F49F3F14
:1005E00011F41EF4CBC00EF4E095E7FBC1C0E92F77
:1005F000E7D080F3BA17620773078407950718F0EE
:1006000071F49EF5FFC00EF4E0950B2EBA2FA02DCD
:100610000B01B90190010C01CA01A0011124FF27AF
:10062000591B99F0593F50F4503E68F11A16F040AA
:10063000A22F232F342F4427585FF3CF46953795A9
:100640002795A795F0405395C9F77EF41F16BA0B6E
:10065000620B730B840BBAF09150A1F0FF0FBB1F1C
:10066000661F771F881FC2F70EC0BA0F621F731F65
:10067000841F48F4879577956795B795F7959E3FC2
:1006800008F0B3CF9395880F08F09927EE0F979550
:100690008795089504D06894B111B5C0089598D095
:1006A00088F09F5790F0B92F9927B751A0F0D1F05B
:1006B000660F771F881F991F1AF0BA95C9F712C0E5
:1006C000B13081F09FD0B1E008959CC0672F782FA2
:1006D0008827B85F39F0B93FCCF386957795679551
:1006E000B395D9F73EF490958095709561957F4FBD
:1006F0008F4F9F4F0895E89409C097FB3EF4909563
:100700008095709561957F4F8F4F9F4F9923A9F0EA
:10071000F92F96E9BB279395F69587957795679579
:10072000B795F111F8CFFAF4BB0F11F460FF1BC0BD
:100730006F5F7F4F8F4F9F4F16C0882311F096E950
:1007400011C0772321F09EE8872F762F05C06623FE
:1007500071F096E8862F70E060E02AF09A95660FB7
:10076000771F881FDAF7880F9695879597F9089570
:1007700097F99F6780E870E060E008959FEF80EC54
:10078000089500240A9416161706180609060895F7
:1007900000240A9412161306140605060895092E5D
:1007A0000394000C11F4882352F0BB0F40F4BF2BCC
:1007B00011F460FF04C06F5F7F4F8F4F9F4F08950C
:1007C00057FD9058440F551F59F05F3F71F0479502
:1007D000880F97FB991F61F09F3F79F087950895E7
:1007E000121613061406551FF2CF4695F1DF08C006
:1007F000161617061806991FF1CF86957105610523
:1008000008940895E894BB2766277727CB0197F9CA
:1008100008950BD0C4CFB5DF28F0BADF18F09523C8
:1008200009F0A6CFABCF1124EECFCADFA0F3959F7E
:10083000D1F3950F50E0551F629FF001729FBB27C7
:10084000F00DB11D639FAA27F00DB11DAA1F649F73
:100850006627B00DA11D661F829F2227B00DA11D26
:10086000621F739FB00DA11D621F839FA00D611DAC
:10087000221F749F3327A00D611D231F849F600DCD
:10088000211D822F762F6A2F11249F5750408AF006
:10089000E1F088234AF0EE0FFF1FBB1F661F771F92
:1008A000881F91505040A9F79E3F510570F060CFCE
:1008B000AACF5F3FECF3983EDCF38695779567957A
:1008C000B795F795E7959F5FC1F7FE2B880F911DB0
:1008D0009695879597F90895A1E21A2EAA1BBB1B3E
:1008E000FD010DC0AA1FBB1FEE1FFF1FA217B307FC
:1008F000E407F50720F0A21BB30BE40BF50B661F12
:10090000771F881F991F1A9469F7609570958095D5
:1009100090959B01AC01BD01CF010895B7FF0C94E8
:1009200096040E949604821B930B08950E94A104D2
:10093000A59F900DB49F900DA49F800D911D112433
:100940000895A29FB001B39FC001A39F700D811DA8
:100950001124911DB29F700D811D1124911D0895C8
:04096000F894FFCF39
:10096400414443302056616C75653A253464202037
:100974004571756976616C656E742054656D70653A
:0E0984007261747572653A2564430A0D0000B5
:00000001FF
