S015000061746D6567613332626C696E6B2E737265632B
S11300000C942A000C9434000C9434000C943400A6
S11300100C9434000C9434000C9434000C9434008C
S11300200C9434000C9434000C9434000C9434007C
S11300300C9434000C9434000C9434000C9434006C
S11300400C9434000C9434000C9434000C9434005C
S11300500C94340011241FBECFE5D8E0DEBFCDBF21
S11300600E9436000C944C000C940000B89AC09A7C
S11300702FEF83ED90E3215080409040E1F700C0E2
S11300800000C0982FEF83ED90E321508040904012
S10F0090E1F700C00000EBCFF894FFCFB4
S9030000FC
