:100000000C946B000C9480000C9480000C94800085
:100010000C9480000C9480000C9480000C94800060
:100020000C9480000C9480000C9480000C94800050
:100030000C9480000C9480000C9480000C94800040
:100040000C9480000C9480000C9480000C94800030
:100050000C94800008000000BE922449123EABAA16
:10006000AA2ABECDCCCC4C3E00000080BEABAAAAD2
:10007000AA3E00000000BF000000803F000000001A
:1000800000084178D3BB4387D1133D190E3CC3BD53
:100090004282AD2B3E68EC8276BED98FE1A93E4C00
:1000A00080EFFFBE01C4FF7F3F0000000000076338
:1000B0004236B79BD8A71A39685618AEBAAB558CDA
:1000C0001D3CB7CC5763BD6DEDFD753EF617723123
:1000D000BF000000803F11241FBECFE5D8E0DEBF87
:1000E000CDBF10E0A0E6B0E0ECEEFFE002C005906E
:1000F0000D92AC3CB107D9F70E9459010C94F4075A
:100100000C94000081E886B917B8089587B98AE091
:1001100090E00E949100369A349BFECF84B195B155
:100120000895009731F025E02A95F1F70000019736
:10013000F8CF0895009741F0EFE9FFE03197F1F72C
:1001400000C000000197F6CF0895CF92DF92EF92A2
:10015000FF92CF93DF93EC016FEF73E0681B790B95
:10016000882777FD8095982F0E945C0520E030E07D
:1001700040E251E40E942D066B017C01BE018827FC
:1001800077FD8095982F0E945C059B01AC01C7010B
:10019000B6010E94C104DF91CF91FF90EF90DF90F4
:1001A000CF900895CF92DF92EF92FF92CF93DF939B
:1001B000C2E3D0E0C12CD12C760180E00E94860001
:1001C0000E94A5009B01AC01C701B6010E945D041D
:1001D0006B017C0184EF91E00E949A0021972097A7
:1001E00061F720E030E048E452E4C701B6010E9424
:1001F000C1042EEA37E44DE151E40E94C104DF91CD
:10020000CF91FF90EF90DF90CF900895CF92DF9243
:10021000EF92FF92CF93DF93C5E0D0E0C12CD12CB9
:10022000760180E00E9486000E94A5009B01AC013F
:10023000C701B6010E945D046B017C0182E390E07E
:100240000E949A002197209761F720E030E040EA71
:1002500050E4C701B6010E94C104DF91CF91FF9025
:10026000EF90DF90CF900895CF93DF93EA010E9443
:10027000ED052C813D814E815F810E945C042885C3
:1002800039854A855B850E94C104288139814A816C
:100290005B810E945D049B01AC0160E070E080E244
:1002A00091E40E9490060E942905CB01DF91CF9135
:1002B000089560E875E280E090E00E9429020E94C3
:1002C00082008CE790E09F938F930E9440030E94EE
:1002D000D2006093600070936100809362009093FD
:1002E00063008DE890E09F938F930E94400380917C
:1002F00063008F93809162008F93809161008F9350
:10030000809160008F9386EA90E09F938F930E9484
:10031000400383EA90E09F938F930E9440038DB740
:100320009EB70C960FB6F8949EBF0FBE8DBF82EBA2
:10033000882E80E0982E07EB10E0CBEBD0E09FEB0F
:10034000A92E90E0B92E24ECC22E20E0D22E33EA62
:10035000E32E30E0F32E9F928F920E9440030E9482
:10036000060120916000309161004091620050913F
:1003700063000E94C10440E750E00E9434019F9353
:100380008F931F930F930E944003DF93CF930E949C
:100390004003BF92AF920E944003DF92CF920E942F
:1003A00040030E940601209160003091610040915D
:1003B0006200509163000E94C10444E650E00E9434
:1003C00034019F938F931F930F930E944003DF93F9
:1003D000CF930E944003FF92EF920E94400384EF6C
:1003E00091E00E949A008DB79EB744960FB6F8949C
:1003F0009EBF0FBE8DBFAFCFCF92DF92EF92FF9225
:100400006B017C01DC01CB0180569940A109B10947
:10041000813A984BA140B10598F4A8EFBFEFA7012E
:1004200096010E94D5077C5D8B409F4FE4E0220F30
:10043000331F441F551FEA95D1F70E94B00702C031
:1004400027E630E029B930BDFF90EF90DF90CF90E4
:10045000089528E12AB926E820BD1BB80C94FC01B8
:100460005D9BFECF8CB90895AF92BF92CF92DF9281
:10047000EF92FF920F931F93CF93DF931F92CDB70D
:10048000DEB76B017C01AA24A394B12C4423F1F0C4
:100490000FEF040FC50102C0880F991F0A95E2F7FC
:1004A0008C01222717FD2095322F0C211D212E2192
:1004B0003F2181E0012B022B032B09F480E0805DBA
:1004C00049830E94300249814150E0CF0F90DF9173
:1004D000CF911F910F91FF90EF90DF90CF90BF9041
:1004E000AF900895CF93DF93EC018991882319F0A1
:1004F0000E943002FACFDF91CF9108957F928F92C0
:100500009F92AF92BF92CF92DF92EF92FF920F93A2
:100510001F93CF93DF93CDB7DEB72A970FB6F8942A
:10052000DEBF0FBECDBF782ECB01BA01C22E22E0B6
:10053000721216C04C2D2A960FB6F894DEBF0FBE6D
:10054000CDBFDF91CF911F910F91FF90EF90DF9082
:10055000CF90BF90AF909F908F907F900C9434027B
:10056000611571058105910549F0FE0131967F0104
:100570008F01872C912CA12CB12C1DC010E01C15D3
:10058000A1F11A3091F180E30E9430021F5FF7CF92
:10059000611571058105910599F0D62EA50194018B
:1005A0000E94B007CA01B901729ED0181124F80147
:1005B000D0820F5F1F4FD02EDE18DC1448F310C01E
:1005C000FAE0FC1568F0F8011082F3CFFE01ED0DA2
:1005D000F11D80818A3038F0895C0E943002DA9403
:1005E000D110F4CF02C0805DF8CF2A960FB6F894F0
:1005F000DEBF0FBECDBFDF91CF911F910F91FF9056
:10060000EF90DF90CF90BF90AF909F908F907F90B2
:1006100008958F929F92AF92BF92CF92DF92EF9206
:10062000FF926B017C010E942E054B015C012FEFB4
:10063000AB01BC018AE00E947E028EE20E94300281
:10064000C501B4010E945A059B01AC01C701B60166
:100650000E945C0420E034E244E759E40E942D0645
:100660000E942E05AB01BC012FEF8AE0FF90EF90B6
:10067000DF90CF90BF90AF909F908F900C947E02B0
:10068000CF92DF92EF92FF920F931F93CF93DF935E
:1006900000D000D01F92CDB7DEB7FE017096E1907A
:1006A000F1906F01F7018081882309F4F7C085324A
:1006B00009F0ECC087010F5F1F4FF701818190EDBA
:1006C000980F9A3078F420E090ED980F9A3058F413
:1006D000FAE02F9F900D1124292F0F5F1F4FF80173
:1006E0008081F2CF2FEF883509F48FC0C8F48434AD
:1006F00009F44CC058F4823409F4A1C038F58532AD
:1007000009F0C7C085E20E943002C3C0833509F4F6
:10071000B2C0853509F464C0863409F0BAC09FC000
:10072000863609F49CC040F4833681F08436B9F0F3
:10073000823609F0AEC076C0853709F447C08837E5
:1007400009F459C0833709F0A4C095C07601F2E0DE
:10075000EF0EF11CF60180810E94300295C07601F7
:10076000F2E0EF0EF11CF601C080D180D7FE08C088
:10077000D194C194D1088DE22D830E9430022D8145
:10078000A601662757FD6095762F33C07601F4E009
:10079000EF0EF11CF601408151816281738177FF78
:1007A00028C070956095509541955F4F6F4F7F4F72
:1007B0008DE22D8349835A836B837C830E943002B0
:1007C0007C816B815A8149812D8113C07601F2E0D1
:1007D000EF0EF11CF6014081518160E070E009C02C
:1007E0007601F4E0EF0EF11CF60140815181628147
:1007F00073818AE014C07601F2E0EF0EF11CF6017D
:100800004081518160E070E009C07601F4E0EF0EB4
:10081000F11CF601408151816281738180E10E9467
:100820007E0232C07601F2E0EF0EF11CF60160812B
:1008300071812F3F09F420E180E090E00CC0760147
:10084000F4E0EF0EF11CF6016081718182819381E9
:100850002F3F09F420E2422F0E94340215C0760196
:10086000F4E0EF0EF11CF6016081718182819381C9
:100870000E94090309C07601F2E0EF0EF11CF601B7
:10088000808191810E947202670103C00E94300240
:1008900087017801FFEFEF1AFF0A04CF0F900F9046
:1008A0000F900F900F90DF91CF911F910F91FF90BC
:1008B000EF90DF90CF9008955058BB27AA270ED015
:1008C0004DC13ED130F043D120F031F49F3F11F4BF
:1008D0001EF433C10EF4E095E7FB29C1E92F4FD197
:1008E00080F3BA17620773078407950718F071F44D
:1008F0009EF567C10EF4E0950B2EBA2FA02D0B01CB
:10090000B90190010C01CA01A0011124FF27591B54
:1009100099F0593F50F4503E68F11A16F040A22F5A
:10092000232F342F4427585FF3CF469537952795CB
:10093000A795F0405395C9F77EF41F16BA0B620BCA
:10094000730B840BBAF09150A1F0FF0FBB1F661F11
:10095000771F881FC2F70EC0BA0F621F731F841F54
:1009600048F4879577956795B795F7959E3F08F07A
:10097000B3CF9395880F08F09927EE0F9795879539
:1009800008950CD0EBC0E3D040F0DAD030F021F481
:100990005F3F19F0CCC0511115C1CFC0F0D098F312
:1009A0009923C9F35523B1F3951B550BBB27AA27F0
:1009B00062177307840738F09F5F5F4F220F331F62
:1009C000441FAA1FA9F333D00E2E3AF0E0E830D02E
:1009D00091505040E695001CCAF729D0FE2F27D031
:1009E000660F771F881FBB1F261737074807AB07FF
:1009F000B0E809F0BB0B802DBF01FF2793585F4F74
:100A00002AF09E3F510568F092C0DCC05F3FECF3D6
:100A1000983EDCF3869577956795B795F7959F5F38
:100A2000C9F7880F911D9695879597F90895E1E08C
:100A3000660F771F881FBB1F621773078407BA07EB
:100A400020F0621B730B840BBA0BEE1F88F7E09546
:100A5000089504D06894B111B5C0089598D088F075
:100A60009F5790F0B92F9927B751A0F0D1F0660F9A
:100A7000771F881F991F1AF0BA95C9F712C0B130B5
:100A800081F09FD0B1E008959CC0672F782F882710
:100A9000B85F39F0B93FCCF3869577956795B395F4
:100AA000D9F73EF490958095709561957F4F8F4F63
:100AB0009F4F0895E89409C097FB3EF49095809568
:100AC000709561957F4F8F4F9F4F9923A9F0F92F14
:100AD00096E9BB279395F695879577956795B79592
:100AE000F111F8CFFAF4BB0F11F460FF1BC06F5F78
:100AF0007F4F8F4F9F4F16C0882311F096E911C08A
:100B0000772321F09EE8872F762F05C0662371F0AA
:100B100096E8862F70E060E02AF09A95660F771FBE
:100B2000881FDAF7880F9695879597F9089597F9B2
:100B30009F6780E870E060E008959FEF80EC089583
:100B400000240A94161617061806090608950024AC
:100B50000A9412161306140605060895092E039426
:100B6000000C11F4882352F0BB0F40F4BF2B11F49A
:100B700060FF04C06F5F7F4F8F4F9F4F089557FDF9
:100B80009058440F551F59F05F3F71F04795880FFB
:100B900097FB991F61F09F3F79F087950895121692
:100BA00013061406551FF2CF4695F1DF08C016163E
:100BB00017061806991FF1CF8695710561050894EF
:100BC0000895E894BB2766277727CB0197F9089506
:100BD0000EF023C1B2CF6894AACFD9DFC8F399230E
:100BE000D1F3C6F3DF93CF931F930F93FF92C92FD7
:100BF000DD2788232AF02197660F771F881FDAF7F1
:100C000020E030E040E85FEB9FE3883920F0803E51
:100C100030F021968F7751DEE4E5F0E003C04DDE41
:100C2000E1E8F0E008D18B01BE01EC01FB2E6F572B
:100C300071097595771F880B990B3EDF28E132E724
:100C400041E35FE316D0AF2D9801AE01FF900F9105
:100C50001F91CF91DF9142DE81CF0BD07FCF70DF2C
:100C600028F075DF18F0952309F061CF66CF1124C5
:100C7000A9CF85DFA0F3959FD1F3950F50E0551FC5
:100C8000629FF001729FBB27F00DB11D639FAA27E1
:100C9000F00DB11DAA1F649F6627B00DA11D661F30
:100CA000829F2227B00DA11D621F739FB00DA11D51
:100CB000621F839FA00D611D221F749F3327A00D0B
:100CC000611D231F849F600D211D822F762F6A2FA7
:100CD00011249F5750408AF0E1F088234AF0EE0F2C
:100CE000FF1FBB1F661F771F881F91505040A9F739
:100CF0009E3F510570F01BCF65CF5F3FECF3983EF0
:100D0000DCF3869577956795B795F795E7959F5F9F
:100D1000C1F7FE2B880F911D9695879597F9089539
:100D2000FA01EE0FFF1F30962105310599F161158B
:100D3000710561F48038BFE39B0749F168949038EE
:100D4000810561F08038BFEF9B0741F0992342F5A0
:100D5000FF3FE1053105210511F1E8940894E7957D
:100D6000D901AA2329F4AB2FBE2FF85FD0F310C00E
:100D7000FF5F70F4A695E0F7F73950F019F0FF3AED
:100D800038F49F779F930CD00F9007FC90580895EC
:100D90003EF0D3CE60E070E080E89FE308954FE737
:100DA0009F775F934F933F932F9317DF2F913F913F
:100DB0004F915F9152DF05C019F40EF0B8CE01CF0C
:100DC000BCCEE5DEC8F39638C0F707F80F92E8947A
:100DD0002BE33AEA48EB5FE74EDF0F920F920F9258
:100DE0004DB75EB70F9289D0EEEAF0E024D04F9174
:100DF0005F91EF91FF91E595EE1FFF1F49F0FE57C0
:100E0000E0684427EE0F441FFA95E1F74195550B32
:100E100040D00F9007FE34C008959F3F31F09150AD
:100E200020F4879577956795B795880F911D9695CE
:100E3000879597F90895DF93CF931F930F93FF92B0
:100E4000EF92DF927B018C01689405C0DA2EEF01EE
:100E500010DFFE01E894A5912591359145915591BA
:100E6000AEF3EF013BDDFE019701A801DA9479F7BB
:100E7000DF90EF90FF900F911F91CF91DF91089538
:100E80009B01AC0160E070E080E89FE37ACD4FCE3B
:100E9000C4CF7DDEE8F39923D9F3940F511DBBF342
:100EA0009150504094F059F0882332F0660F771F2C
:100EB000881F91505040C1F79E3F510544F7880F5D
:100EC000911D9695879597F908955F3FACF0983EF0
:100ED0009CF0BB27869577956795B79508F4B16028
:100EE0009395C1F7BB0F58F711F460FFE8CF6F5F20
:100EF0007F4F8F4F9F4FE3CF65CEFA01DC01AA0FE2
:100F0000BB1F9B01AC01BF5728F42227332744277E
:100F100050781FC0B75188F4AB2F00244695379501
:100F20002795011CA395D2F3002069F0220F331FEF
:100F3000441FB395DAF30DD0BFCC61307105A0E842
:100F40008A07B94630F49B01AC01662777278827CA
:100F50009078309621F02083318342835383089523
:100F6000A1E21A2EAA1BBB1BFD010DC0AA1FBB1FAD
:100F7000EE1FFF1FA217B307E407F50720F0A21B1F
:100F8000B30BE40BF50B661F771F881F991F1A948C
:100F900069F760957095809590959B01AC01BD01B6
:100FA000CF010895B7FF0C94DA070E94DA07821B7D
:100FB000930B08950E94E507A59F900DB49F900D97
:100FC000A49F800D911D11240895A29FB001B39F8D
:100FD000C001A39F700D811D1124911DB29F700D42
:0C0FE000811D1124911D0895F894FFCF8D
:100FEC00000020413333134014AE073FF628DCBE1B
:100FFC0033331340CDCC4C3E6666E6BE43616C6920
:10100C0062726174696E672E2E2E0A0D0043616C3C
:10101C006962726174696F6E20697320646F6E65AA
:10102C002E2E2E0A0D00526F3D2534666B6F686DA7
:10103C0020004C50473A002533640070706D00203E
:0C104C0020202000534D4F4B453A00007F
:00000001FF
