S01D0000536576656E5F7365676D656E745F646973706C61792E737265635F
S11300000C942A000C943F000C943F000C943F0085
S11300100C943F000C943F000C943F000C943F0060
S11300200C943F000C943F000C943F000C943F0050
S11300300C943F000C943F000C943F000C943F0040
S11300400C943F000C943F000C943F000C943F0030
S11300500C943F0011241FBECFE5D8E0DEBFCDBF16
S113006010E0A0E6B0E0EAEEF0E002C005900D92E8
S1130070A037B107D9F70E9441000C9473000C9487
S11300800000CF93DF93CDB7DEB760970FB6F89437
S1130090DEBF0FBECDBF80E1E0E6F0E0DE011196E9
S11300A001900D928A95E1F78FEF87BB81BB80E0C9
S11300B090E021E022BBE1E0F0E0EC0FFD1FE80F4F
S11300C0F91F308138BB3FEF43ED50E331504040DE
S11300D05040E1F700C0000001968F30910554F3C1
S10D00E080E090E0E7CFF894FFCF32
S11300EAC0F9A4B0999282F880908883C6A1868EBA
S9030000FC
